{
  "contractName": "homie",
  "abi": [
    {
      "inputs": [],
      "stateMutability": "nonpayable",
      "type": "constructor"
    },
    {
      "anonymous": false,
      "inputs": [
        {
          "indexed": false,
          "internalType": "uint256",
          "name": "id",
          "type": "uint256"
        },
        {
          "indexed": false,
          "internalType": "string",
          "name": "hashValue",
          "type": "string"
        },
        {
          "indexed": false,
          "internalType": "string",
          "name": "description",
          "type": "string"
        },
        {
          "indexed": false,
          "internalType": "uint256",
          "name": "tipAmount",
          "type": "uint256"
        },
        {
          "indexed": false,
          "internalType": "address payable",
          "name": "author",
          "type": "address"
        }
      ],
      "name": "VideoCreated",
      "type": "event"
    },
    {
      "anonymous": false,
      "inputs": [
        {
          "indexed": false,
          "internalType": "uint256",
          "name": "id",
          "type": "uint256"
        },
        {
          "indexed": false,
          "internalType": "string",
          "name": "hashValue",
          "type": "string"
        },
        {
          "indexed": false,
          "internalType": "string",
          "name": "description",
          "type": "string"
        },
        {
          "indexed": false,
          "internalType": "uint256",
          "name": "tipAmount",
          "type": "uint256"
        },
        {
          "indexed": false,
          "internalType": "address payable",
          "name": "author",
          "type": "address"
        }
      ],
      "name": "VideoTipped",
      "type": "event"
    },
    {
      "inputs": [
        {
          "internalType": "uint256",
          "name": "",
          "type": "uint256"
        }
      ],
      "name": "Videos",
      "outputs": [
        {
          "internalType": "uint256",
          "name": "id",
          "type": "uint256"
        },
        {
          "internalType": "string",
          "name": "hashValue",
          "type": "string"
        },
        {
          "internalType": "string",
          "name": "description",
          "type": "string"
        },
        {
          "internalType": "uint256",
          "name": "tipAmount",
          "type": "uint256"
        },
        {
          "internalType": "address payable",
          "name": "author",
          "type": "address"
        }
      ],
      "stateMutability": "view",
      "type": "function",
      "constant": true
    },
    {
      "inputs": [
        {
          "internalType": "address",
          "name": "forwarder",
          "type": "address"
        }
      ],
      "name": "isTrustedForwarder",
      "outputs": [
        {
          "internalType": "bool",
          "name": "",
          "type": "bool"
        }
      ],
      "stateMutability": "view",
      "type": "function",
      "constant": true
    },
    {
      "inputs": [],
      "name": "name",
      "outputs": [
        {
          "internalType": "string",
          "name": "",
          "type": "string"
        }
      ],
      "stateMutability": "view",
      "type": "function",
      "constant": true
    },
    {
      "inputs": [],
      "name": "trustedForwarder",
      "outputs": [
        {
          "internalType": "address",
          "name": "",
          "type": "address"
        }
      ],
      "stateMutability": "view",
      "type": "function",
      "constant": true
    },
    {
      "inputs": [],
      "name": "videoCount",
      "outputs": [
        {
          "internalType": "uint256",
          "name": "",
          "type": "uint256"
        }
      ],
      "stateMutability": "view",
      "type": "function",
      "constant": true
    },
    {
      "inputs": [
        {
          "internalType": "string",
          "name": "_VideoHash",
          "type": "string"
        },
        {
          "internalType": "string",
          "name": "_description",
          "type": "string"
        }
      ],
      "name": "uploadVideo",
      "outputs": [],
      "stateMutability": "nonpayable",
      "type": "function"
    },
    {
      "inputs": [
        {
          "internalType": "uint256",
          "name": "_id",
          "type": "uint256"
        }
      ],
      "name": "tipVideoOwner",
      "outputs": [],
      "stateMutability": "payable",
      "type": "function",
      "payable": true
    },
    {
      "inputs": [],
      "name": "versionRecipient",
      "outputs": [
        {
          "internalType": "string",
          "name": "",
          "type": "string"
        }
      ],
      "stateMutability": "view",
      "type": "function",
      "constant": true
    }
  ],
  "bytecode": "0x60806040526040518060400160405280600581526020017f686f6d69650000000000000000000000000000000000000000000000000000008152506001908051906020019062000051929190620000bf565b5060006002553480156200006457600080fd5b50739399bb24dbb5c4b782c70c2969f58716ebbd6a3b6000806101000a81548173ffffffffffffffffffffffffffffffffffffffff021916908373ffffffffffffffffffffffffffffffffffffffff160217905550620001d3565b828054620000cd906200019e565b90600052602060002090601f016020900481019282620000f157600085556200013d565b82601f106200010c57805160ff19168380011785556200013d565b828001600101855582156200013d579182015b828111156200013c5782518255916020019190600101906200011f565b5b5090506200014c919062000150565b5090565b5b808211156200016b57600081600090555060010162000151565b5090565b7f4e487b7100000000000000000000000000000000000000000000000000000000600052602260045260246000fd5b60006002820490506001821680620001b757607f821691505b602082108103620001cd57620001cc6200016f565b5b50919050565b61132380620001e36000396000f3fe60806040526004361061007b5760003560e01c80637da0a8771161004e5780637da0a8771461012f5780638a5447c51461015a578063c61b5f4c14610183578063d910265f146101ae5761007b565b806306fdde0314610080578063486ff0cd146100ab578063572b6c05146100d6578063693df64f14610113575b600080fd5b34801561008c57600080fd5b506100956101ef565b6040516100a29190610bd5565b60405180910390f35b3480156100b757600080fd5b506100c061027d565b6040516100cd9190610bd5565b60405180910390f35b3480156100e257600080fd5b506100fd60048036038101906100f89190610c69565b6102ba565b60405161010a9190610cb1565b60405180910390f35b61012d60048036038101906101289190610d02565b610313565b005b34801561013b57600080fd5b50610144610679565b6040516101519190610d3e565b60405180910390f35b34801561016657600080fd5b50610181600480360381019061017c9190610e8e565b61069d565b005b34801561018f57600080fd5b506101986108f1565b6040516101a59190610f15565b60405180910390f35b3480156101ba57600080fd5b506101d560048036038101906101d09190610d02565b6108f7565b6040516101e6959493929190610f51565b60405180910390f35b600180546101fc90610fe1565b80601f016020809104026020016040519081016040528092919081815260200182805461022890610fe1565b80156102755780601f1061024a57610100808354040283529160200191610275565b820191906000526020600020905b81548152906001019060200180831161025857829003601f168201915b505050505081565b60606040518060400160405280600181526020017f3100000000000000000000000000000000000000000000000000000000000000815250905090565b60008060009054906101000a900473ffffffffffffffffffffffffffffffffffffffff1673ffffffffffffffffffffffffffffffffffffffff168273ffffffffffffffffffffffffffffffffffffffff16149050919050565b60008111801561032557506002548111155b610364576040517f08c379a000000000000000000000000000000000000000000000000000000000815260040161035b9061105e565b60405180910390fd5b6000600360008381526020019081526020016000206040518060a00160405290816000820154815260200160018201805461039e90610fe1565b80601f01602080910402602001604051908101604052809291908181526020018280546103ca90610fe1565b80156104175780601f106103ec57610100808354040283529160200191610417565b820191906000526020600020905b8154815290600101906020018083116103fa57829003601f168201915b5050505050815260200160028201805461043090610fe1565b80601f016020809104026020016040519081016040528092919081815260200182805461045c90610fe1565b80156104a95780601f1061047e576101008083540402835291602001916104a9565b820191906000526020600020905b81548152906001019060200180831161048c57829003601f168201915b50505050508152602001600382015481526020016004820160009054906101000a900473ffffffffffffffffffffffffffffffffffffffff1673ffffffffffffffffffffffffffffffffffffffff1673ffffffffffffffffffffffffffffffffffffffff168152505090506000816080015190508073ffffffffffffffffffffffffffffffffffffffff166108fc349081150290604051600060405180830381858888f19350505050158015610563573d6000803e3d6000fd5b5034826060015161057491906110ad565b82606001818152505081600360008581526020019081526020016000206000820151816000015560208201518160010190805190602001906105b7929190610a99565b5060408201518160020190805190602001906105d4929190610a99565b506060820151816003015560808201518160040160006101000a81548173ffffffffffffffffffffffffffffffffffffffff021916908373ffffffffffffffffffffffffffffffffffffffff1602179055509050507fbfeb378d5d03c2c5835089635313fc2b1019a54149ff2a3269df479a6280c1e1838360200151846040015185606001518560405161066c959493929190610f51565b60405180910390a1505050565b60008054906101000a900473ffffffffffffffffffffffffffffffffffffffff1681565b60008151116106e1576040517f08c379a00000000000000000000000000000000000000000000000000000000081526004016106d89061114f565b60405180910390fd5b6000825111610725576040517f08c379a000000000000000000000000000000000000000000000000000000000815260040161071c906111bb565b60405180910390fd5b600073ffffffffffffffffffffffffffffffffffffffff16610745610a5d565b73ffffffffffffffffffffffffffffffffffffffff160361079b576040517f08c379a000000000000000000000000000000000000000000000000000000000815260040161079290611227565b60405180910390fd5b60016002546107aa91906110ad565b6002819055506040518060a001604052806002548152602001838152602001828152602001600081526020016107de610a5d565b73ffffffffffffffffffffffffffffffffffffffff16815250600360006002548152602001908152602001600020600082015181600001556020820151816001019080519060200190610832929190610a99565b50604082015181600201908051906020019061084f929190610a99565b506060820151816003015560808201518160040160006101000a81548173ffffffffffffffffffffffffffffffffffffffff021916908373ffffffffffffffffffffffffffffffffffffffff1602179055509050507fc569b8c074f7ed9af0f01f5bb58a866b3e26a492874db1828ad379e0e73c2d3a600254838360006108d4610a5d565b6040516108e595949392919061128c565b60405180910390a15050565b60025481565b600360205280600052604060002060009150905080600001549080600101805461092090610fe1565b80601f016020809104026020016040519081016040528092919081815260200182805461094c90610fe1565b80156109995780601f1061096e57610100808354040283529160200191610999565b820191906000526020600020905b81548152906001019060200180831161097c57829003601f168201915b5050505050908060020180546109ae90610fe1565b80601f01602080910402602001604051908101604052809291908181526020018280546109da90610fe1565b8015610a275780601f106109fc57610100808354040283529160200191610a27565b820191906000526020600020905b815481529060010190602001808311610a0a57829003601f168201915b5050505050908060030154908060040160009054906101000a900473ffffffffffffffffffffffffffffffffffffffff16905085565b60006018600036905010158015610a795750610a78336102ba565b5b15610a8d57601436033560601c9050610a95565b339050610a96565b5b90565b828054610aa590610fe1565b90600052602060002090601f016020900481019282610ac75760008555610b0e565b82601f10610ae057805160ff1916838001178555610b0e565b82800160010185558215610b0e579182015b82811115610b0d578251825591602001919060010190610af2565b5b509050610b1b9190610b1f565b5090565b5b80821115610b38576000816000905550600101610b20565b5090565b600081519050919050565b600082825260208201905092915050565b60005b83811015610b76578082015181840152602081019050610b5b565b83811115610b85576000848401525b50505050565b6000601f19601f8301169050919050565b6000610ba782610b3c565b610bb18185610b47565b9350610bc1818560208601610b58565b610bca81610b8b565b840191505092915050565b60006020820190508181036000830152610bef8184610b9c565b905092915050565b6000604051905090565b600080fd5b600080fd5b600073ffffffffffffffffffffffffffffffffffffffff82169050919050565b6000610c3682610c0b565b9050919050565b610c4681610c2b565b8114610c5157600080fd5b50565b600081359050610c6381610c3d565b92915050565b600060208284031215610c7f57610c7e610c01565b5b6000610c8d84828501610c54565b91505092915050565b60008115159050919050565b610cab81610c96565b82525050565b6000602082019050610cc66000830184610ca2565b92915050565b6000819050919050565b610cdf81610ccc565b8114610cea57600080fd5b50565b600081359050610cfc81610cd6565b92915050565b600060208284031215610d1857610d17610c01565b5b6000610d2684828501610ced565b91505092915050565b610d3881610c2b565b82525050565b6000602082019050610d536000830184610d2f565b92915050565b600080fd5b600080fd5b7f4e487b7100000000000000000000000000000000000000000000000000000000600052604160045260246000fd5b610d9b82610b8b565b810181811067ffffffffffffffff82111715610dba57610db9610d63565b5b80604052505050565b6000610dcd610bf7565b9050610dd98282610d92565b919050565b600067ffffffffffffffff821115610df957610df8610d63565b5b610e0282610b8b565b9050602081019050919050565b82818337600083830152505050565b6000610e31610e2c84610dde565b610dc3565b905082815260208101848484011115610e4d57610e4c610d5e565b5b610e58848285610e0f565b509392505050565b600082601f830112610e7557610e74610d59565b5b8135610e85848260208601610e1e565b91505092915050565b60008060408385031215610ea557610ea4610c01565b5b600083013567ffffffffffffffff811115610ec357610ec2610c06565b5b610ecf85828601610e60565b925050602083013567ffffffffffffffff811115610ef057610eef610c06565b5b610efc85828601610e60565b9150509250929050565b610f0f81610ccc565b82525050565b6000602082019050610f2a6000830184610f06565b92915050565b6000610f3b82610c0b565b9050919050565b610f4b81610f30565b82525050565b600060a082019050610f666000830188610f06565b8181036020830152610f788187610b9c565b90508181036040830152610f8c8186610b9c565b9050610f9b6060830185610f06565b610fa86080830184610f42565b9695505050505050565b7f4e487b7100000000000000000000000000000000000000000000000000000000600052602260045260246000fd5b60006002820490506001821680610ff957607f821691505b60208210810361100c5761100b610fb2565b5b50919050565b7f496e76616c696420566964656f2043686f73656e20666f722054697070696e67600082015250565b6000611048602083610b47565b915061105382611012565b602082019050919050565b600060208201905081810360008301526110778161103b565b9050919050565b7f4e487b7100000000000000000000000000000000000000000000000000000000600052601160045260246000fd5b60006110b882610ccc565b91506110c383610ccc565b9250827fffffffffffffffffffffffffffffffffffffffffffffffffffffffffffffffff038211156110f8576110f761107e565b5b828201905092915050565b7f456d707479204465736372697074696f6e000000000000000000000000000000600082015250565b6000611139601183610b47565b915061114482611103565b602082019050919050565b600060208201905081810360008301526111688161112c565b9050919050565b7f456d70747920566964656f486173680000000000000000000000000000000000600082015250565b60006111a5600f83610b47565b91506111b08261116f565b602082019050919050565b600060208201905081810360008301526111d481611198565b9050919050565b7f456d707479204164647265737300000000000000000000000000000000000000600082015250565b6000611211600d83610b47565b915061121c826111db565b602082019050919050565b6000602082019050818103600083015261124081611204565b9050919050565b6000819050919050565b6000819050919050565b600061127661127161126c84611247565b611251565b610ccc565b9050919050565b6112868161125b565b82525050565b600060a0820190506112a16000830188610f06565b81810360208301526112b38187610b9c565b905081810360408301526112c78186610b9c565b90506112d6606083018561127d565b6112e36080830184610f42565b969550505050505056fea26469706673582212201338348b650ac7034a9ce14b58444e6a29769e5ed6cc65b470d98b5e38b5dfaf64736f6c634300080d0033",
  "immutableReferences": {},
  "source": "pragma solidity ^0.8.0;\r\nimport \"@opengsn/gsn/contracts/BaseRelayRecipient.sol\";\r\n\r\n\r\n\r\ncontract homie is BaseRelayRecipient{\r\n\r\n\r\n\r\n    constructor(){\r\n        trustedForwarder = 0x9399BB24DBB5C4b782C70c2969F58716Ebbd6a3b;\r\n    }\r\n\r\n  \r\n\r\n    string public name = \"homie\";\r\n    uint public videoCount = 0;\r\n\r\n    //Store Videos\r\n    mapping(uint256 => Video) public Videos;\r\n\r\n    struct Video {\r\n        uint256 id;\r\n        string hashValue; //IPFS Hash of Video\r\n        string description;\r\n        uint256 tipAmount;\r\n        address payable author;\r\n    }\r\n\r\n    event VideoCreated(\r\n      uint id,\r\n      string hashValue,\r\n      string description,\r\n      uint tipAmount,\r\n      address payable author\r\n    );\r\n\r\n    event VideoTipped(\r\n      uint id,\r\n      string hashValue,\r\n      string description,\r\n      uint tipAmount,\r\n      address payable author\r\n    );\r\n\r\n    //Create Videos\r\n    function uploadVideo(string memory _VideoHash, string memory _description) public{\r\n      require(bytes(_description).length > 0, 'Empty Description');\r\n      require(bytes(_VideoHash).length > 0, 'Empty VideoHash');\r\n      require(payable(_msgSender()) != address(0), 'Empty Address');\r\n      videoCount = videoCount + 1;\r\n      Videos[videoCount] = Video(videoCount, _VideoHash, _description, 0, payable(_msgSender()));\r\n\r\n      emit VideoCreated(videoCount, _VideoHash, _description, 0, payable(_msgSender()));\r\n    }\r\n    //Tip Videos\r\n\r\n    function tipVideoOwner(uint _id) public payable{\r\n\r\n      require(_id > 0 && _id <= videoCount, 'Invalid Video Chosen for Tipping');\r\n      Video memory _Video = Videos[_id];\r\n      address payable _author = _Video.author;\r\n      _author.transfer(msg.value);\r\n\r\n      _Video.tipAmount = _Video.tipAmount + msg.value;\r\n\r\n      Videos[_id] = _Video;\r\n\r\n      emit VideoTipped(_id, _Video.hashValue, _Video.description, _Video.tipAmount, _author);\r\n    }\r\n\r\n    function versionRecipient() external virtual override view returns (string memory) {\r\n        return \"1\";\r\n    }\r\n}\r\n",
  "sourcePath": "C:\\pr0\\homie\\homie\\src\\contracts\\homie.sol",
  "compiler": {
    "name": "solc",
    "version": "0.8.13+commit.abaa5c0e.Emscripten.clang"
  },
  "schemaVersion": "3.4.5",
  "updatedAt": "2022-03-23T17:02:54.173Z",
  "networkType": "ethereum",
  "devdoc": {
    "kind": "dev",
    "methods": {},
    "version": 1
  },
  "userdoc": {
    "kind": "user",
    "methods": {
      "isTrustedForwarder(address)": {
        "notice": "return if the forwarder is trusted to forward relayed transactions to us. the forwarder is required to verify the sender's signature, and verify the call is not a replay."
      }
    },
    "version": 1
  }
}