{
  "contractName": "homie",
  "abi": [
    {
      "inputs": [],
      "stateMutability": "nonpayable",
      "type": "constructor"
    },
    {
      "anonymous": false,
      "inputs": [
        {
          "indexed": false,
          "internalType": "uint256",
          "name": "id",
          "type": "uint256"
        },
        {
          "indexed": false,
          "internalType": "string",
          "name": "hashValue",
          "type": "string"
        },
        {
          "indexed": false,
          "internalType": "string",
          "name": "description",
          "type": "string"
        },
        {
          "indexed": false,
          "internalType": "uint256",
          "name": "tipAmount",
          "type": "uint256"
        },
        {
          "indexed": false,
          "internalType": "address payable",
          "name": "author",
          "type": "address"
        }
      ],
      "name": "VideoCreated",
      "type": "event"
    },
    {
      "anonymous": false,
      "inputs": [
        {
          "indexed": false,
          "internalType": "uint256",
          "name": "id",
          "type": "uint256"
        },
        {
          "indexed": false,
          "internalType": "string",
          "name": "hashValue",
          "type": "string"
        },
        {
          "indexed": false,
          "internalType": "string",
          "name": "description",
          "type": "string"
        },
        {
          "indexed": false,
          "internalType": "uint256",
          "name": "tipAmount",
          "type": "uint256"
        },
        {
          "indexed": false,
          "internalType": "address payable",
          "name": "author",
          "type": "address"
        }
      ],
      "name": "VideoTipped",
      "type": "event"
    },
    {
      "inputs": [
        {
          "internalType": "uint256",
          "name": "",
          "type": "uint256"
        }
      ],
      "name": "Videos",
      "outputs": [
        {
          "internalType": "uint256",
          "name": "id",
          "type": "uint256"
        },
        {
          "internalType": "string",
          "name": "hashValue",
          "type": "string"
        },
        {
          "internalType": "string",
          "name": "description",
          "type": "string"
        },
        {
          "internalType": "uint256",
          "name": "tipAmount",
          "type": "uint256"
        },
        {
          "internalType": "address payable",
          "name": "author",
          "type": "address"
        },
        {
          "internalType": "bool",
          "name": "followerExclusive",
          "type": "bool"
        }
      ],
      "stateMutability": "view",
      "type": "function",
      "constant": true
    },
    {
      "inputs": [
        {
          "internalType": "address",
          "name": "",
          "type": "address"
        }
      ],
      "name": "followerCount",
      "outputs": [
        {
          "internalType": "uint256",
          "name": "",
          "type": "uint256"
        }
      ],
      "stateMutability": "view",
      "type": "function",
      "constant": true
    },
    {
      "inputs": [
        {
          "internalType": "address",
          "name": "",
          "type": "address"
        },
        {
          "internalType": "uint256",
          "name": "",
          "type": "uint256"
        }
      ],
      "name": "following",
      "outputs": [
        {
          "internalType": "address",
          "name": "",
          "type": "address"
        }
      ],
      "stateMutability": "view",
      "type": "function",
      "constant": true
    },
    {
      "inputs": [
        {
          "internalType": "address",
          "name": "forwarder",
          "type": "address"
        }
      ],
      "name": "isTrustedForwarder",
      "outputs": [
        {
          "internalType": "bool",
          "name": "",
          "type": "bool"
        }
      ],
      "stateMutability": "view",
      "type": "function",
      "constant": true
    },
    {
      "inputs": [],
      "name": "name",
      "outputs": [
        {
          "internalType": "string",
          "name": "",
          "type": "string"
        }
      ],
      "stateMutability": "view",
      "type": "function",
      "constant": true
    },
    {
      "inputs": [],
      "name": "trustedForwarder",
      "outputs": [
        {
          "internalType": "address",
          "name": "",
          "type": "address"
        }
      ],
      "stateMutability": "view",
      "type": "function",
      "constant": true
    },
    {
      "inputs": [],
      "name": "videoCount",
      "outputs": [
        {
          "internalType": "uint256",
          "name": "",
          "type": "uint256"
        }
      ],
      "stateMutability": "view",
      "type": "function",
      "constant": true
    },
    {
      "inputs": [
        {
          "internalType": "string",
          "name": "_VideoHash",
          "type": "string"
        },
        {
          "internalType": "string",
          "name": "_description",
          "type": "string"
        },
        {
          "internalType": "bool",
          "name": "followerOnly",
          "type": "bool"
        }
      ],
      "name": "uploadVideo",
      "outputs": [],
      "stateMutability": "nonpayable",
      "type": "function"
    },
    {
      "inputs": [
        {
          "internalType": "uint256",
          "name": "_id",
          "type": "uint256"
        }
      ],
      "name": "tipVideoOwner",
      "outputs": [],
      "stateMutability": "payable",
      "type": "function",
      "payable": true
    },
    {
      "inputs": [],
      "name": "versionRecipient",
      "outputs": [
        {
          "internalType": "string",
          "name": "",
          "type": "string"
        }
      ],
      "stateMutability": "view",
      "type": "function",
      "constant": true
    },
    {
      "inputs": [
        {
          "internalType": "address",
          "name": "author",
          "type": "address"
        }
      ],
      "name": "followAccount",
      "outputs": [],
      "stateMutability": "nonpayable",
      "type": "function"
    }
  ],
  "bytecode": "0x60806040526040518060400160405280600581526020017f686f6d69650000000000000000000000000000000000000000000000000000008152506001908051906020019062000051929190620000bf565b5060006002553480156200006457600080fd5b50739399bb24dbb5c4b782c70c2969f58716ebbd6a3b6000806101000a81548173ffffffffffffffffffffffffffffffffffffffff021916908373ffffffffffffffffffffffffffffffffffffffff160217905550620001d3565b828054620000cd906200019e565b90600052602060002090601f016020900481019282620000f157600085556200013d565b82601f106200010c57805160ff19168380011785556200013d565b828001600101855582156200013d579182015b828111156200013c5782518255916020019190600101906200011f565b5b5090506200014c919062000150565b5090565b5b808211156200016b57600081600090555060010162000151565b5090565b7f4e487b7100000000000000000000000000000000000000000000000000000000600052602260045260246000fd5b60006002820490506001821680620001b757607f821691505b602082108103620001cd57620001cc6200016f565b5b50919050565b6116fa80620001e36000396000f3fe60806040526004361061009c5760003560e01c8063693df64f11610064578063693df64f1461019a5780637da0a877146101b65780639139cda5146101e1578063c61b5f4c1461021e578063d910265f14610249578063d9e67aee1461028b5761009c565b806306fdde03146100a157806330b3a890146100cc578063405c8d0714610109578063486ff0cd14610132578063572b6c051461015d575b600080fd5b3480156100ad57600080fd5b506100b66102b4565b6040516100c39190610ebe565b60405180910390f35b3480156100d857600080fd5b506100f360048036038101906100ee9190610f52565b610342565b6040516101009190610f98565b60405180910390f35b34801561011557600080fd5b50610130600480360381019061012b9190611120565b61035a565b005b34801561013e57600080fd5b506101476105d7565b6040516101549190610ebe565b60405180910390f35b34801561016957600080fd5b50610184600480360381019061017f9190610f52565b610614565b60405161019191906111ba565b60405180910390f35b6101b460048036038101906101af9190611201565b61066d565b005b3480156101c257600080fd5b506101cb610a0e565b6040516101d8919061123d565b60405180910390f35b3480156101ed57600080fd5b5061020860048036038101906102039190611258565b610a32565b604051610215919061123d565b60405180910390f35b34801561022a57600080fd5b50610233610a80565b6040516102409190610f98565b60405180910390f35b34801561025557600080fd5b50610270600480360381019061026b9190611201565b610a86565b604051610282969594939291906112b9565b60405180910390f35b34801561029757600080fd5b506102b260048036038101906102ad9190610f52565b610bff565b005b600180546102c190611357565b80601f01602080910402602001604051908101604052809291908181526020018280546102ed90611357565b801561033a5780601f1061030f5761010080835404028352916020019161033a565b820191906000526020600020905b81548152906001019060200180831161031d57829003601f168201915b505050505081565b60036020528060005260406000206000915090505481565b600082511161039e576040517f08c379a0000000000000000000000000000000000000000000000000000000008152600401610395906113d4565b60405180910390fd5b60008351116103e2576040517f08c379a00000000000000000000000000000000000000000000000000000000081526004016103d990611440565b60405180910390fd5b600073ffffffffffffffffffffffffffffffffffffffff16610402610d46565b73ffffffffffffffffffffffffffffffffffffffff1603610458576040517f08c379a000000000000000000000000000000000000000000000000000000000815260040161044f906114ac565b60405180910390fd5b600160025461046791906114fb565b6002819055506040518060c0016040528060025481526020018481526020018381526020016000815260200161049b610d46565b73ffffffffffffffffffffffffffffffffffffffff1681526020018215158152506004600060025481526020019081526020016000206000820151816000015560208201518160010190805190602001906104f7929190610d82565b506040820151816002019080519060200190610514929190610d82565b506060820151816003015560808201518160040160006101000a81548173ffffffffffffffffffffffffffffffffffffffff021916908373ffffffffffffffffffffffffffffffffffffffff16021790555060a08201518160040160146101000a81548160ff0219169083151502179055509050507fc569b8c074f7ed9af0f01f5bb58a866b3e26a492874db1828ad379e0e73c2d3a600254848460006105b9610d46565b6040516105ca959493929190611596565b60405180910390a1505050565b60606040518060400160405280600181526020017f3100000000000000000000000000000000000000000000000000000000000000815250905090565b60008060009054906101000a900473ffffffffffffffffffffffffffffffffffffffff1673ffffffffffffffffffffffffffffffffffffffff168273ffffffffffffffffffffffffffffffffffffffff16149050919050565b60008111801561067f57506002548111155b6106be576040517f08c379a00000000000000000000000000000000000000000000000000000000081526004016106b590611643565b60405180910390fd5b6000600460008381526020019081526020016000206040518060c0016040529081600082015481526020016001820180546106f890611357565b80601f016020809104026020016040519081016040528092919081815260200182805461072490611357565b80156107715780601f1061074657610100808354040283529160200191610771565b820191906000526020600020905b81548152906001019060200180831161075457829003601f168201915b5050505050815260200160028201805461078a90611357565b80601f01602080910402602001604051908101604052809291908181526020018280546107b690611357565b80156108035780601f106107d857610100808354040283529160200191610803565b820191906000526020600020905b8154815290600101906020018083116107e657829003601f168201915b50505050508152602001600382015481526020016004820160009054906101000a900473ffffffffffffffffffffffffffffffffffffffff1673ffffffffffffffffffffffffffffffffffffffff1673ffffffffffffffffffffffffffffffffffffffff1681526020016004820160149054906101000a900460ff16151515158152505090506000816080015190508073ffffffffffffffffffffffffffffffffffffffff166108fc349081150290604051600060405180830381858888f193505050501580156108d8573d6000803e3d6000fd5b503482606001516108e991906114fb565b826060018181525050816004600085815260200190815260200160002060008201518160000155602082015181600101908051906020019061092c929190610d82565b506040820151816002019080519060200190610949929190610d82565b506060820151816003015560808201518160040160006101000a81548173ffffffffffffffffffffffffffffffffffffffff021916908373ffffffffffffffffffffffffffffffffffffffff16021790555060a08201518160040160146101000a81548160ff0219169083151502179055509050507fbfeb378d5d03c2c5835089635313fc2b1019a54149ff2a3269df479a6280c1e18383602001518460400151856060015185604051610a01959493929190611663565b60405180910390a1505050565b60008054906101000a900473ffffffffffffffffffffffffffffffffffffffff1681565b60056020528160005260406000208181548110610a4e57600080fd5b906000526020600020016000915091509054906101000a900473ffffffffffffffffffffffffffffffffffffffff1681565b60025481565b6004602052806000526040600020600091509050806000015490806001018054610aaf90611357565b80601f0160208091040260200160405190810160405280929190818152602001828054610adb90611357565b8015610b285780601f10610afd57610100808354040283529160200191610b28565b820191906000526020600020905b815481529060010190602001808311610b0b57829003601f168201915b505050505090806002018054610b3d90611357565b80601f0160208091040260200160405190810160405280929190818152602001828054610b6990611357565b8015610bb65780601f10610b8b57610100808354040283529160200191610bb6565b820191906000526020600020905b815481529060010190602001808311610b9957829003601f168201915b5050505050908060030154908060040160009054906101000a900473ffffffffffffffffffffffffffffffffffffffff16908060040160149054906101000a900460ff16905086565b60056000610c0b610d46565b73ffffffffffffffffffffffffffffffffffffffff1673ffffffffffffffffffffffffffffffffffffffff168152602001908152602001600020819080600181540180825580915050600190039060005260206000200160009091909190916101000a81548173ffffffffffffffffffffffffffffffffffffffff021916908373ffffffffffffffffffffffffffffffffffffffff160217905550600160036000610cb4610d46565b73ffffffffffffffffffffffffffffffffffffffff1673ffffffffffffffffffffffffffffffffffffffff16815260200190815260200160002054610cf991906114fb565b60036000610d05610d46565b73ffffffffffffffffffffffffffffffffffffffff1673ffffffffffffffffffffffffffffffffffffffff1681526020019081526020016000208190555050565b60006018600036905010158015610d625750610d6133610614565b5b15610d7657601436033560601c9050610d7e565b339050610d7f565b5b90565b828054610d8e90611357565b90600052602060002090601f016020900481019282610db05760008555610df7565b82601f10610dc957805160ff1916838001178555610df7565b82800160010185558215610df7579182015b82811115610df6578251825591602001919060010190610ddb565b5b509050610e049190610e08565b5090565b5b80821115610e21576000816000905550600101610e09565b5090565b600081519050919050565b600082825260208201905092915050565b60005b83811015610e5f578082015181840152602081019050610e44565b83811115610e6e576000848401525b50505050565b6000601f19601f8301169050919050565b6000610e9082610e25565b610e9a8185610e30565b9350610eaa818560208601610e41565b610eb381610e74565b840191505092915050565b60006020820190508181036000830152610ed88184610e85565b905092915050565b6000604051905090565b600080fd5b600080fd5b600073ffffffffffffffffffffffffffffffffffffffff82169050919050565b6000610f1f82610ef4565b9050919050565b610f2f81610f14565b8114610f3a57600080fd5b50565b600081359050610f4c81610f26565b92915050565b600060208284031215610f6857610f67610eea565b5b6000610f7684828501610f3d565b91505092915050565b6000819050919050565b610f9281610f7f565b82525050565b6000602082019050610fad6000830184610f89565b92915050565b600080fd5b600080fd5b7f4e487b7100000000000000000000000000000000000000000000000000000000600052604160045260246000fd5b610ff582610e74565b810181811067ffffffffffffffff8211171561101457611013610fbd565b5b80604052505050565b6000611027610ee0565b90506110338282610fec565b919050565b600067ffffffffffffffff82111561105357611052610fbd565b5b61105c82610e74565b9050602081019050919050565b82818337600083830152505050565b600061108b61108684611038565b61101d565b9050828152602081018484840111156110a7576110a6610fb8565b5b6110b2848285611069565b509392505050565b600082601f8301126110cf576110ce610fb3565b5b81356110df848260208601611078565b91505092915050565b60008115159050919050565b6110fd816110e8565b811461110857600080fd5b50565b60008135905061111a816110f4565b92915050565b60008060006060848603121561113957611138610eea565b5b600084013567ffffffffffffffff81111561115757611156610eef565b5b611163868287016110ba565b935050602084013567ffffffffffffffff81111561118457611183610eef565b5b611190868287016110ba565b92505060406111a18682870161110b565b9150509250925092565b6111b4816110e8565b82525050565b60006020820190506111cf60008301846111ab565b92915050565b6111de81610f7f565b81146111e957600080fd5b50565b6000813590506111fb816111d5565b92915050565b60006020828403121561121757611216610eea565b5b6000611225848285016111ec565b91505092915050565b61123781610f14565b82525050565b6000602082019050611252600083018461122e565b92915050565b6000806040838503121561126f5761126e610eea565b5b600061127d85828601610f3d565b925050602061128e858286016111ec565b9150509250929050565b60006112a382610ef4565b9050919050565b6112b381611298565b82525050565b600060c0820190506112ce6000830189610f89565b81810360208301526112e08188610e85565b905081810360408301526112f48187610e85565b90506113036060830186610f89565b61131060808301856112aa565b61131d60a08301846111ab565b979650505050505050565b7f4e487b7100000000000000000000000000000000000000000000000000000000600052602260045260246000fd5b6000600282049050600182168061136f57607f821691505b60208210810361138257611381611328565b5b50919050565b7f456d707479204465736372697074696f6e000000000000000000000000000000600082015250565b60006113be601183610e30565b91506113c982611388565b602082019050919050565b600060208201905081810360008301526113ed816113b1565b9050919050565b7f456d70747920566964656f486173680000000000000000000000000000000000600082015250565b600061142a600f83610e30565b9150611435826113f4565b602082019050919050565b600060208201905081810360008301526114598161141d565b9050919050565b7f456d707479204164647265737300000000000000000000000000000000000000600082015250565b6000611496600d83610e30565b91506114a182611460565b602082019050919050565b600060208201905081810360008301526114c581611489565b9050919050565b7f4e487b7100000000000000000000000000000000000000000000000000000000600052601160045260246000fd5b600061150682610f7f565b915061151183610f7f565b9250827fffffffffffffffffffffffffffffffffffffffffffffffffffffffffffffffff03821115611546576115456114cc565b5b828201905092915050565b6000819050919050565b6000819050919050565b600061158061157b61157684611551565b61155b565b610f7f565b9050919050565b61159081611565565b82525050565b600060a0820190506115ab6000830188610f89565b81810360208301526115bd8187610e85565b905081810360408301526115d18186610e85565b90506115e06060830185611587565b6115ed60808301846112aa565b9695505050505050565b7f496e76616c696420566964656f2043686f73656e20666f722054697070696e67600082015250565b600061162d602083610e30565b9150611638826115f7565b602082019050919050565b6000602082019050818103600083015261165c81611620565b9050919050565b600060a0820190506116786000830188610f89565b818103602083015261168a8187610e85565b9050818103604083015261169e8186610e85565b90506116ad6060830185610f89565b6116ba60808301846112aa565b969550505050505056fea264697066735822122032a69158efb08ac62cf54dea2bc62a94b42d19c9c91d4c3a2bc0463c1f06370e64736f6c634300080d0033",
  "immutableReferences": {},
  "source": "pragma solidity ^0.8.0;\r\nimport \"@opengsn/gsn/contracts/BaseRelayRecipient.sol\";\r\n\r\n\r\n\r\ncontract homie is BaseRelayRecipient {\r\n\r\n\r\n\r\n    constructor(){\r\n        trustedForwarder = 0x9399BB24DBB5C4b782C70c2969F58716Ebbd6a3b;\r\n    }\r\n\r\n  \r\n\r\n    string public name = \"homie\";\r\n    uint public videoCount = 0;\r\n\r\n    mapping(address => uint) public followerCount;\r\n\r\n    //Store Videos\r\n    mapping(uint256 => Video) public Videos;\r\n\r\n    mapping(address => address[]) public following;\r\n\r\n    struct Video {\r\n        uint256 id;\r\n        string hashValue; //IPFS Hash of Video\r\n        string description;\r\n        uint256 tipAmount;\r\n        address payable author;\r\n        bool followerExclusive;\r\n    }\r\n\r\n    event VideoCreated(\r\n      uint id,\r\n      string hashValue,\r\n      string description,\r\n      uint tipAmount,\r\n      address payable author\r\n    );\r\n\r\n    event VideoTipped(\r\n      uint id,\r\n      string hashValue,\r\n      string description,\r\n      uint tipAmount,\r\n      address payable author\r\n    );\r\n\r\n    //Create Videos\r\n    function uploadVideo(string memory _VideoHash, string memory _description, bool followerOnly) public{\r\n      require(bytes(_description).length > 0, 'Empty Description');\r\n      require(bytes(_VideoHash).length > 0, 'Empty VideoHash');\r\n      require(payable(_msgSender()) != address(0), 'Empty Address');\r\n      videoCount = videoCount + 1;\r\n      Videos[videoCount] = Video(videoCount, _VideoHash, _description, 0, payable(_msgSender()), followerOnly);\r\n\r\n      emit VideoCreated(videoCount, _VideoHash, _description, 0, payable(_msgSender()));\r\n    }\r\n    //Tip Videos\r\n\r\n    function tipVideoOwner(uint _id) public payable{\r\n\r\n      require(_id > 0 && _id <= videoCount, 'Invalid Video Chosen for Tipping');\r\n      Video memory _Video = Videos[_id];\r\n      address payable _author = _Video.author;\r\n      _author.transfer(msg.value);\r\n\r\n      _Video.tipAmount = _Video.tipAmount + msg.value;\r\n\r\n      Videos[_id] = _Video;\r\n\r\n      emit VideoTipped(_id, _Video.hashValue, _Video.description, _Video.tipAmount, _author);\r\n    }\r\n\r\n    function versionRecipient() external virtual override view returns (string memory) {\r\n        return \"1\";\r\n    }\r\n\r\n    function followAccount(address author) public {\r\n      following[_msgSender()].push(author);\r\n      followerCount[_msgSender()] = followerCount[_msgSender()] + 1; \r\n    }\r\n}\r\n",
  "sourcePath": "C:\\pr0\\homie\\homie\\src\\contracts\\homie.sol",
  "compiler": {
    "name": "solc",
    "version": "0.8.13+commit.abaa5c0e.Emscripten.clang"
  },
  "schemaVersion": "3.4.6",
  "updatedAt": "2022-03-24T14:01:40.240Z",
  "networkType": "ethereum",
  "devdoc": {
    "kind": "dev",
    "methods": {},
    "version": 1
  },
  "userdoc": {
    "kind": "user",
    "methods": {
      "isTrustedForwarder(address)": {
        "notice": "return if the forwarder is trusted to forward relayed transactions to us. the forwarder is required to verify the sender's signature, and verify the call is not a replay."
      }
    },
    "version": 1
  }
}