{
  "contractName": "homie",
  "abi": [
    {
      "inputs": [],
      "stateMutability": "nonpayable",
      "type": "constructor"
    },
    {
      "anonymous": false,
      "inputs": [
        {
          "indexed": false,
          "internalType": "uint256",
          "name": "id",
          "type": "uint256"
        },
        {
          "indexed": false,
          "internalType": "string",
          "name": "hashValue",
          "type": "string"
        },
        {
          "indexed": false,
          "internalType": "string",
          "name": "description",
          "type": "string"
        },
        {
          "indexed": false,
          "internalType": "uint256",
          "name": "tipAmount",
          "type": "uint256"
        },
        {
          "indexed": false,
          "internalType": "address payable",
          "name": "author",
          "type": "address"
        }
      ],
      "name": "VideoCreated",
      "type": "event"
    },
    {
      "anonymous": false,
      "inputs": [
        {
          "indexed": false,
          "internalType": "uint256",
          "name": "id",
          "type": "uint256"
        },
        {
          "indexed": false,
          "internalType": "string",
          "name": "hashValue",
          "type": "string"
        },
        {
          "indexed": false,
          "internalType": "string",
          "name": "description",
          "type": "string"
        },
        {
          "indexed": false,
          "internalType": "uint256",
          "name": "tipAmount",
          "type": "uint256"
        },
        {
          "indexed": false,
          "internalType": "address payable",
          "name": "author",
          "type": "address"
        }
      ],
      "name": "VideoTipped",
      "type": "event"
    },
    {
      "inputs": [
        {
          "internalType": "uint256",
          "name": "",
          "type": "uint256"
        }
      ],
      "name": "Videos",
      "outputs": [
        {
          "internalType": "uint256",
          "name": "id",
          "type": "uint256"
        },
        {
          "internalType": "string",
          "name": "hashValue",
          "type": "string"
        },
        {
          "internalType": "string",
          "name": "description",
          "type": "string"
        },
        {
          "internalType": "uint256",
          "name": "tipAmount",
          "type": "uint256"
        },
        {
          "internalType": "address payable",
          "name": "author",
          "type": "address"
        },
        {
          "internalType": "bool",
          "name": "followerExclusive",
          "type": "bool"
        },
        {
          "internalType": "string",
          "name": "image",
          "type": "string"
        }
      ],
      "stateMutability": "view",
      "type": "function",
      "constant": true
    },
    {
      "inputs": [
        {
          "internalType": "address",
          "name": "",
          "type": "address"
        }
      ],
      "name": "followerCount",
      "outputs": [
        {
          "internalType": "uint256",
          "name": "",
          "type": "uint256"
        }
      ],
      "stateMutability": "view",
      "type": "function",
      "constant": true
    },
    {
      "inputs": [
        {
          "internalType": "address",
          "name": "",
          "type": "address"
        },
        {
          "internalType": "uint256",
          "name": "",
          "type": "uint256"
        }
      ],
      "name": "following",
      "outputs": [
        {
          "internalType": "address",
          "name": "",
          "type": "address"
        }
      ],
      "stateMutability": "view",
      "type": "function",
      "constant": true
    },
    {
      "inputs": [
        {
          "internalType": "address",
          "name": "forwarder",
          "type": "address"
        }
      ],
      "name": "isTrustedForwarder",
      "outputs": [
        {
          "internalType": "bool",
          "name": "",
          "type": "bool"
        }
      ],
      "stateMutability": "view",
      "type": "function",
      "constant": true
    },
    {
      "inputs": [],
      "name": "name",
      "outputs": [
        {
          "internalType": "string",
          "name": "",
          "type": "string"
        }
      ],
      "stateMutability": "view",
      "type": "function",
      "constant": true
    },
    {
      "inputs": [],
      "name": "trustedForwarder",
      "outputs": [
        {
          "internalType": "address",
          "name": "",
          "type": "address"
        }
      ],
      "stateMutability": "view",
      "type": "function",
      "constant": true
    },
    {
      "inputs": [],
      "name": "videoCount",
      "outputs": [
        {
          "internalType": "uint256",
          "name": "",
          "type": "uint256"
        }
      ],
      "stateMutability": "view",
      "type": "function",
      "constant": true
    },
    {
      "inputs": [
        {
          "internalType": "string",
          "name": "_VideoHash",
          "type": "string"
        },
        {
          "internalType": "string",
          "name": "_description",
          "type": "string"
        },
        {
          "internalType": "bool",
          "name": "followerOnly",
          "type": "bool"
        },
        {
          "internalType": "string",
          "name": "_imageHash",
          "type": "string"
        }
      ],
      "name": "uploadVideo",
      "outputs": [],
      "stateMutability": "nonpayable",
      "type": "function"
    },
    {
      "inputs": [
        {
          "internalType": "uint256",
          "name": "_id",
          "type": "uint256"
        }
      ],
      "name": "tipVideoOwner",
      "outputs": [],
      "stateMutability": "payable",
      "type": "function",
      "payable": true
    },
    {
      "inputs": [],
      "name": "versionRecipient",
      "outputs": [
        {
          "internalType": "string",
          "name": "",
          "type": "string"
        }
      ],
      "stateMutability": "view",
      "type": "function",
      "constant": true
    },
    {
      "inputs": [
        {
          "internalType": "address",
          "name": "author",
          "type": "address"
        }
      ],
      "name": "followAccount",
      "outputs": [],
      "stateMutability": "nonpayable",
      "type": "function"
    }
  ],
  "bytecode": "0x60806040526040518060400160405280600581526020017f686f6d69650000000000000000000000000000000000000000000000000000008152506001908051906020019062000051929190620000bf565b5060006002553480156200006457600080fd5b50739399bb24dbb5c4b782c70c2969f58716ebbd6a3b6000806101000a81548173ffffffffffffffffffffffffffffffffffffffff021916908373ffffffffffffffffffffffffffffffffffffffff160217905550620001d3565b828054620000cd906200019e565b90600052602060002090601f016020900481019282620000f157600085556200013d565b82601f106200010c57805160ff19168380011785556200013d565b828001600101855582156200013d579182015b828111156200013c5782518255916020019190600101906200011f565b5b5090506200014c919062000150565b5090565b5b808211156200016b57600081600090555060010162000151565b5090565b7f4e487b7100000000000000000000000000000000000000000000000000000000600052602260045260246000fd5b60006002820490506001821680620001b757607f821691505b602082108103620001cd57620001cc6200016f565b5b50919050565b6118a180620001e36000396000f3fe60806040526004361061009c5760003560e01c80637da0a877116100645780637da0a8771461018d5780639139cda5146101b8578063c61b5f4c146101f5578063d910265f14610220578063d9e67aee14610263578063fe806f2e1461028c5761009c565b806306fdde03146100a157806330b3a890146100cc578063486ff0cd14610109578063572b6c0514610134578063693df64f14610171575b600080fd5b3480156100ad57600080fd5b506100b66102b5565b6040516100c39190611020565b60405180910390f35b3480156100d857600080fd5b506100f360048036038101906100ee91906110b4565b610343565b60405161010091906110fa565b60405180910390f35b34801561011557600080fd5b5061011e61035b565b60405161012b9190611020565b60405180910390f35b34801561014057600080fd5b5061015b600480360381019061015691906110b4565b610398565b6040516101689190611130565b60405180910390f35b61018b60048036038101906101869190611177565b6103f1565b005b34801561019957600080fd5b506101a2610841565b6040516101af91906111b3565b60405180910390f35b3480156101c457600080fd5b506101df60048036038101906101da91906111ce565b610865565b6040516101ec91906111b3565b60405180910390f35b34801561020157600080fd5b5061020a6108b3565b60405161021791906110fa565b60405180910390f35b34801561022c57600080fd5b5061024760048036038101906102429190611177565b6108b9565b60405161025a979695949392919061122f565b60405180910390f35b34801561026f57600080fd5b5061028a600480360381019061028591906110b4565b610ac0565b005b34801561029857600080fd5b506102b360048036038101906102ae9190611414565b610c07565b005b600180546102c2906114fe565b80601f01602080910402602001604051908101604052809291908181526020018280546102ee906114fe565b801561033b5780601f106103105761010080835404028352916020019161033b565b820191906000526020600020905b81548152906001019060200180831161031e57829003601f168201915b505050505081565b60036020528060005260406000206000915090505481565b60606040518060400160405280600181526020017f3100000000000000000000000000000000000000000000000000000000000000815250905090565b60008060009054906101000a900473ffffffffffffffffffffffffffffffffffffffff1673ffffffffffffffffffffffffffffffffffffffff168273ffffffffffffffffffffffffffffffffffffffff16149050919050565b60008111801561040357506002548111155b610442576040517f08c379a00000000000000000000000000000000000000000000000000000000081526004016104399061157b565b60405180910390fd5b6000600460008381526020019081526020016000206040518060e00160405290816000820154815260200160018201805461047c906114fe565b80601f01602080910402602001604051908101604052809291908181526020018280546104a8906114fe565b80156104f55780601f106104ca576101008083540402835291602001916104f5565b820191906000526020600020905b8154815290600101906020018083116104d857829003601f168201915b5050505050815260200160028201805461050e906114fe565b80601f016020809104026020016040519081016040528092919081815260200182805461053a906114fe565b80156105875780601f1061055c57610100808354040283529160200191610587565b820191906000526020600020905b81548152906001019060200180831161056a57829003601f168201915b50505050508152602001600382015481526020016004820160009054906101000a900473ffffffffffffffffffffffffffffffffffffffff1673ffffffffffffffffffffffffffffffffffffffff1673ffffffffffffffffffffffffffffffffffffffff1681526020016004820160149054906101000a900460ff1615151515815260200160058201805461061b906114fe565b80601f0160208091040260200160405190810160405280929190818152602001828054610647906114fe565b80156106945780601f1061066957610100808354040283529160200191610694565b820191906000526020600020905b81548152906001019060200180831161067757829003601f168201915b50505050508152505090506000816080015190508073ffffffffffffffffffffffffffffffffffffffff166108fc349081150290604051600060405180830381858888f193505050501580156106ee573d6000803e3d6000fd5b503482606001516106ff91906115ca565b8260600181815250508160046000858152602001908152602001600020600082015181600001556020820151816001019080519060200190610742929190610ee4565b50604082015181600201908051906020019061075f929190610ee4565b506060820151816003015560808201518160040160006101000a81548173ffffffffffffffffffffffffffffffffffffffff021916908373ffffffffffffffffffffffffffffffffffffffff16021790555060a08201518160040160146101000a81548160ff02191690831515021790555060c08201518160050190805190602001906107ed929190610ee4565b509050507fbfeb378d5d03c2c5835089635313fc2b1019a54149ff2a3269df479a6280c1e18383602001518460400151856060015185604051610834959493929190611620565b60405180910390a1505050565b60008054906101000a900473ffffffffffffffffffffffffffffffffffffffff1681565b6005602052816000526040600020818154811061088157600080fd5b906000526020600020016000915091509054906101000a900473ffffffffffffffffffffffffffffffffffffffff1681565b60025481565b60046020528060005260406000206000915090508060000154908060010180546108e2906114fe565b80601f016020809104026020016040519081016040528092919081815260200182805461090e906114fe565b801561095b5780601f106109305761010080835404028352916020019161095b565b820191906000526020600020905b81548152906001019060200180831161093e57829003601f168201915b505050505090806002018054610970906114fe565b80601f016020809104026020016040519081016040528092919081815260200182805461099c906114fe565b80156109e95780601f106109be576101008083540402835291602001916109e9565b820191906000526020600020905b8154815290600101906020018083116109cc57829003601f168201915b5050505050908060030154908060040160009054906101000a900473ffffffffffffffffffffffffffffffffffffffff16908060040160149054906101000a900460ff1690806005018054610a3d906114fe565b80601f0160208091040260200160405190810160405280929190818152602001828054610a69906114fe565b8015610ab65780601f10610a8b57610100808354040283529160200191610ab6565b820191906000526020600020905b815481529060010190602001808311610a9957829003601f168201915b5050505050905087565b60056000610acc610ea8565b73ffffffffffffffffffffffffffffffffffffffff1673ffffffffffffffffffffffffffffffffffffffff168152602001908152602001600020819080600181540180825580915050600190039060005260206000200160009091909190916101000a81548173ffffffffffffffffffffffffffffffffffffffff021916908373ffffffffffffffffffffffffffffffffffffffff160217905550600160036000610b75610ea8565b73ffffffffffffffffffffffffffffffffffffffff1673ffffffffffffffffffffffffffffffffffffffff16815260200190815260200160002054610bba91906115ca565b60036000610bc6610ea8565b73ffffffffffffffffffffffffffffffffffffffff1673ffffffffffffffffffffffffffffffffffffffff1681526020019081526020016000208190555050565b6000835111610c4b576040517f08c379a0000000000000000000000000000000000000000000000000000000008152600401610c42906116cd565b60405180910390fd5b6000845111610c8f576040517f08c379a0000000000000000000000000000000000000000000000000000000008152600401610c8690611739565b60405180910390fd5b600073ffffffffffffffffffffffffffffffffffffffff16610caf610ea8565b73ffffffffffffffffffffffffffffffffffffffff1603610d05576040517f08c379a0000000000000000000000000000000000000000000000000000000008152600401610cfc906117a5565b60405180910390fd5b6001600254610d1491906115ca565b6002819055506040518060e00160405280600254815260200185815260200184815260200160008152602001610d48610ea8565b73ffffffffffffffffffffffffffffffffffffffff168152602001831515815260200182815250600460006002548152602001908152602001600020600082015181600001556020820151816001019080519060200190610daa929190610ee4565b506040820151816002019080519060200190610dc7929190610ee4565b506060820151816003015560808201518160040160006101000a81548173ffffffffffffffffffffffffffffffffffffffff021916908373ffffffffffffffffffffffffffffffffffffffff16021790555060a08201518160040160146101000a81548160ff02191690831515021790555060c0820151816005019080519060200190610e55929190610ee4565b509050507fc569b8c074f7ed9af0f01f5bb58a866b3e26a492874db1828ad379e0e73c2d3a60025485856000610e89610ea8565b604051610e9a95949392919061180a565b60405180910390a150505050565b60006018600036905010158015610ec45750610ec333610398565b5b15610ed857601436033560601c9050610ee0565b339050610ee1565b5b90565b828054610ef0906114fe565b90600052602060002090601f016020900481019282610f125760008555610f59565b82601f10610f2b57805160ff1916838001178555610f59565b82800160010185558215610f59579182015b82811115610f58578251825591602001919060010190610f3d565b5b509050610f669190610f6a565b5090565b5b80821115610f83576000816000905550600101610f6b565b5090565b600081519050919050565b600082825260208201905092915050565b60005b83811015610fc1578082015181840152602081019050610fa6565b83811115610fd0576000848401525b50505050565b6000601f19601f8301169050919050565b6000610ff282610f87565b610ffc8185610f92565b935061100c818560208601610fa3565b61101581610fd6565b840191505092915050565b6000602082019050818103600083015261103a8184610fe7565b905092915050565b6000604051905090565b600080fd5b600080fd5b600073ffffffffffffffffffffffffffffffffffffffff82169050919050565b600061108182611056565b9050919050565b61109181611076565b811461109c57600080fd5b50565b6000813590506110ae81611088565b92915050565b6000602082840312156110ca576110c961104c565b5b60006110d88482850161109f565b91505092915050565b6000819050919050565b6110f4816110e1565b82525050565b600060208201905061110f60008301846110eb565b92915050565b60008115159050919050565b61112a81611115565b82525050565b60006020820190506111456000830184611121565b92915050565b611154816110e1565b811461115f57600080fd5b50565b6000813590506111718161114b565b92915050565b60006020828403121561118d5761118c61104c565b5b600061119b84828501611162565b91505092915050565b6111ad81611076565b82525050565b60006020820190506111c860008301846111a4565b92915050565b600080604083850312156111e5576111e461104c565b5b60006111f38582860161109f565b925050602061120485828601611162565b9150509250929050565b600061121982611056565b9050919050565b6112298161120e565b82525050565b600060e082019050611244600083018a6110eb565b81810360208301526112568189610fe7565b9050818103604083015261126a8188610fe7565b905061127960608301876110eb565b6112866080830186611220565b61129360a0830185611121565b81810360c08301526112a58184610fe7565b905098975050505050505050565b600080fd5b600080fd5b7f4e487b7100000000000000000000000000000000000000000000000000000000600052604160045260246000fd5b6112f582610fd6565b810181811067ffffffffffffffff82111715611314576113136112bd565b5b80604052505050565b6000611327611042565b905061133382826112ec565b919050565b600067ffffffffffffffff821115611353576113526112bd565b5b61135c82610fd6565b9050602081019050919050565b82818337600083830152505050565b600061138b61138684611338565b61131d565b9050828152602081018484840111156113a7576113a66112b8565b5b6113b2848285611369565b509392505050565b600082601f8301126113cf576113ce6112b3565b5b81356113df848260208601611378565b91505092915050565b6113f181611115565b81146113fc57600080fd5b50565b60008135905061140e816113e8565b92915050565b6000806000806080858703121561142e5761142d61104c565b5b600085013567ffffffffffffffff81111561144c5761144b611051565b5b611458878288016113ba565b945050602085013567ffffffffffffffff81111561147957611478611051565b5b611485878288016113ba565b9350506040611496878288016113ff565b925050606085013567ffffffffffffffff8111156114b7576114b6611051565b5b6114c3878288016113ba565b91505092959194509250565b7f4e487b7100000000000000000000000000000000000000000000000000000000600052602260045260246000fd5b6000600282049050600182168061151657607f821691505b602082108103611529576115286114cf565b5b50919050565b7f496e76616c696420566964656f2043686f73656e20666f722054697070696e67600082015250565b6000611565602083610f92565b91506115708261152f565b602082019050919050565b6000602082019050818103600083015261159481611558565b9050919050565b7f4e487b7100000000000000000000000000000000000000000000000000000000600052601160045260246000fd5b60006115d5826110e1565b91506115e0836110e1565b9250827fffffffffffffffffffffffffffffffffffffffffffffffffffffffffffffffff038211156116155761161461159b565b5b828201905092915050565b600060a08201905061163560008301886110eb565b81810360208301526116478187610fe7565b9050818103604083015261165b8186610fe7565b905061166a60608301856110eb565b6116776080830184611220565b9695505050505050565b7f456d707479204465736372697074696f6e000000000000000000000000000000600082015250565b60006116b7601183610f92565b91506116c282611681565b602082019050919050565b600060208201905081810360008301526116e6816116aa565b9050919050565b7f456d70747920566964656f486173680000000000000000000000000000000000600082015250565b6000611723600f83610f92565b915061172e826116ed565b602082019050919050565b6000602082019050818103600083015261175281611716565b9050919050565b7f456d707479204164647265737300000000000000000000000000000000000000600082015250565b600061178f600d83610f92565b915061179a82611759565b602082019050919050565b600060208201905081810360008301526117be81611782565b9050919050565b6000819050919050565b6000819050919050565b60006117f46117ef6117ea846117c5565b6117cf565b6110e1565b9050919050565b611804816117d9565b82525050565b600060a08201905061181f60008301886110eb565b81810360208301526118318187610fe7565b905081810360408301526118458186610fe7565b905061185460608301856117fb565b6118616080830184611220565b969550505050505056fea26469706673582212206bad8759f3b2afd4a13df426758b960256caa62bece533235b7aaad49610cea964736f6c634300080d0033",
  "immutableReferences": {},
  "source": "pragma solidity ^0.8.0;\r\nimport \"@opengsn/gsn/contracts/BaseRelayRecipient.sol\";\r\n\r\n\r\n\r\ncontract homie is BaseRelayRecipient {\r\n\r\n\r\n\r\n    constructor(){\r\n        trustedForwarder = 0x9399BB24DBB5C4b782C70c2969F58716Ebbd6a3b;\r\n    }\r\n\r\n  \r\n\r\n    string public name = \"homie\";\r\n    uint public videoCount = 0;\r\n\r\n    mapping(address => uint) public followerCount;\r\n\r\n    //Store Videos\r\n    mapping(uint256 => Video) public Videos;\r\n\r\n    mapping(address => address[]) public following;\r\n\r\n    struct Video {\r\n        uint256 id;\r\n        string hashValue; //IPFS Hash of Video\r\n        string description;\r\n        uint256 tipAmount;\r\n        address payable author;\r\n        bool followerExclusive;\r\n        string image;\r\n    }\r\n\r\n    event VideoCreated(\r\n      uint id,\r\n      string hashValue,\r\n      string description,\r\n      uint tipAmount,\r\n      address payable author\r\n    );\r\n\r\n    event VideoTipped(\r\n      uint id,\r\n      string hashValue,\r\n      string description,\r\n      uint tipAmount,\r\n      address payable author\r\n    );\r\n\r\n    //Create Videos\r\n    function uploadVideo(string memory _VideoHash, string memory _description, bool followerOnly, string memory _imageHash) public{\r\n      require(bytes(_description).length > 0, 'Empty Description');\r\n      require(bytes(_VideoHash).length > 0, 'Empty VideoHash');\r\n      require(payable(_msgSender()) != address(0), 'Empty Address');\r\n      videoCount = videoCount + 1;\r\n      Videos[videoCount] = Video(videoCount, _VideoHash, _description, 0, payable(_msgSender()), followerOnly, _imageHash);\r\n\r\n      emit VideoCreated(videoCount, _VideoHash, _description, 0, payable(_msgSender()));\r\n    }\r\n    //Tip Videos\r\n\r\n    function tipVideoOwner(uint _id) public payable{\r\n\r\n      require(_id > 0 && _id <= videoCount, 'Invalid Video Chosen for Tipping');\r\n      Video memory _Video = Videos[_id];\r\n      address payable _author = _Video.author;\r\n      _author.transfer(msg.value);\r\n\r\n      _Video.tipAmount = _Video.tipAmount + msg.value;\r\n\r\n      Videos[_id] = _Video;\r\n\r\n      emit VideoTipped(_id, _Video.hashValue, _Video.description, _Video.tipAmount, _author);\r\n    }\r\n\r\n    function versionRecipient() external virtual override view returns (string memory) {\r\n        return \"1\";\r\n    }\r\n\r\n    function followAccount(address author) public {\r\n      following[_msgSender()].push(author);\r\n      followerCount[_msgSender()] = followerCount[_msgSender()] + 1; \r\n    }\r\n}\r\n",
  "sourcePath": "C:\\pr0\\homie\\homie\\src\\contracts\\homie.sol",
  "compiler": {
    "name": "solc",
    "version": "0.8.13+commit.abaa5c0e.Emscripten.clang"
  },
  "schemaVersion": "3.4.6",
  "updatedAt": "2022-03-25T15:21:32.981Z",
  "networkType": "ethereum",
  "devdoc": {
    "kind": "dev",
    "methods": {},
    "version": 1
  },
  "userdoc": {
    "kind": "user",
    "methods": {
      "isTrustedForwarder(address)": {
        "notice": "return if the forwarder is trusted to forward relayed transactions to us. the forwarder is required to verify the sender's signature, and verify the call is not a replay."
      }
    },
    "version": 1
  }
}